{
  "_format": "hh-sol-artifact-1",
  "contractName": "Bank",
  "sourceName": "contracts/Bank.sol",
  "abi": [
    {
      "inputs": [],
      "stateMutability": "nonpayable",
      "type": "constructor"
    },
    {
      "inputs": [],
      "name": "bankName",
      "outputs": [
        {
          "internalType": "string",
          "name": "",
          "type": "string"
        }
      ],
      "stateMutability": "view",
      "type": "function"
    },
    {
      "inputs": [],
      "name": "bankOwner",
      "outputs": [
        {
          "internalType": "address",
          "name": "",
          "type": "address"
        }
      ],
      "stateMutability": "view",
      "type": "function"
    },
    {
      "inputs": [
        {
          "internalType": "address",
          "name": "",
          "type": "address"
        }
      ],
      "name": "customerBalance",
      "outputs": [
        {
          "internalType": "uint256",
          "name": "",
          "type": "uint256"
        }
      ],
      "stateMutability": "view",
      "type": "function"
    },
    {
      "inputs": [],
      "name": "depositMoney",
      "outputs": [],
      "stateMutability": "payable",
      "type": "function"
    },
    {
      "inputs": [],
      "name": "getBankBalance",
      "outputs": [
        {
          "internalType": "uint256",
          "name": "",
          "type": "uint256"
        }
      ],
      "stateMutability": "view",
      "type": "function"
    },
    {
      "inputs": [],
      "name": "getCustomerBalance",
      "outputs": [
        {
          "internalType": "uint256",
          "name": "",
          "type": "uint256"
        }
      ],
      "stateMutability": "view",
      "type": "function"
    },
    {
      "inputs": [
        {
          "internalType": "string",
          "name": "_name",
          "type": "string"
        }
      ],
      "name": "setBankName",
      "outputs": [],
      "stateMutability": "nonpayable",
      "type": "function"
    },
    {
      "inputs": [
        {
          "internalType": "address payable",
          "name": "_to",
          "type": "address"
        },
        {
          "internalType": "uint256",
          "name": "_total",
          "type": "uint256"
        }
      ],
      "name": "withDrawMoney",
      "outputs": [],
      "stateMutability": "payable",
      "type": "function"
    }
  ],
  "bytecode": "0x608060405234801561001057600080fd5b50336000806101000a81548173ffffffffffffffffffffffffffffffffffffffff021916908373ffffffffffffffffffffffffffffffffffffffff160217905550610d60806100606000396000f3fe60806040526004361061007b5760003560e01c80637b83b50b1161004e5780637b83b50b1461011b578063a853409a14610146578063b39d7b7c14610171578063e147aaa71461018d5761007b565b806316c05aa21461008057806327d358011461008a57806337ebe47b146100b557806370142690146100f2575b600080fd5b6100886101b8565b005b34801561009657600080fd5b5061009f610254565b6040516100ac91906109c1565b60405180910390f35b3480156100c157600080fd5b506100dc60048036038101906100d79190610711565b6102e2565b6040516100e99190610a63565b60405180910390f35b3480156100fe57600080fd5b5061011960048036038101906101149190610776565b6102fa565b005b34801561012757600080fd5b506101306103a2565b60405161013d9190610a63565b60405180910390f35b34801561015257600080fd5b5061015b610439565b6040516101689190610a63565b60405180910390f35b61018b6004803603810190610186919061073a565b610480565b005b34801561019957600080fd5b506101a26105a3565b6040516101af91906109a6565b60405180910390f35b60003414156101fc576040517f08c379a00000000000000000000000000000000000000000000000000000000081526004016101f390610a03565b60405180910390fd5b34600260003373ffffffffffffffffffffffffffffffffffffffff1673ffffffffffffffffffffffffffffffffffffffff168152602001908152602001600020600082825461024b9190610afb565b92505081905550565b6001805461026190610c15565b80601f016020809104026020016040519081016040528092919081815260200182805461028d90610c15565b80156102da5780601f106102af576101008083540402835291602001916102da565b820191906000526020600020905b8154815290600101906020018083116102bd57829003601f168201915b505050505081565b60026020528060005260406000206000915090505481565b60008054906101000a900473ffffffffffffffffffffffffffffffffffffffff1673ffffffffffffffffffffffffffffffffffffffff163373ffffffffffffffffffffffffffffffffffffffff1614610388576040517f08c379a000000000000000000000000000000000000000000000000000000000815260040161037f90610a23565b60405180910390fd5b806001908051906020019061039e9291906105c7565b5050565b60008060009054906101000a900473ffffffffffffffffffffffffffffffffffffffff1673ffffffffffffffffffffffffffffffffffffffff163373ffffffffffffffffffffffffffffffffffffffff1614610433576040517f08c379a000000000000000000000000000000000000000000000000000000000815260040161042a90610a43565b60405180910390fd5b47905090565b6000600260003373ffffffffffffffffffffffffffffffffffffffff1673ffffffffffffffffffffffffffffffffffffffff16815260200190815260200160002054905090565b600260003373ffffffffffffffffffffffffffffffffffffffff1673ffffffffffffffffffffffffffffffffffffffff16815260200190815260200160002054811115610502576040517f08c379a00000000000000000000000000000000000000000000000000000000081526004016104f9906109e3565b60405180910390fd5b80600260003373ffffffffffffffffffffffffffffffffffffffff1673ffffffffffffffffffffffffffffffffffffffff16815260200190815260200160002060008282546105519190610b51565b925050819055508173ffffffffffffffffffffffffffffffffffffffff166108fc829081150290604051600060405180830381858888f1935050505015801561059e573d6000803e3d6000fd5b505050565b60008054906101000a900473ffffffffffffffffffffffffffffffffffffffff1681565b8280546105d390610c15565b90600052602060002090601f0160209004810192826105f5576000855561063c565b82601f1061060e57805160ff191683800117855561063c565b8280016001018555821561063c579182015b8281111561063b578251825591602001919060010190610620565b5b509050610649919061064d565b5090565b5b8082111561066657600081600090555060010161064e565b5090565b600061067d61067884610aaf565b610a7e565b90508281526020810184848401111561069557600080fd5b6106a0848285610bd3565b509392505050565b6000813590506106b781610ce5565b92915050565b6000813590506106cc81610cfc565b92915050565b600082601f8301126106e357600080fd5b81356106f384826020860161066a565b91505092915050565b60008135905061070b81610d13565b92915050565b60006020828403121561072357600080fd5b6000610731848285016106a8565b91505092915050565b6000806040838503121561074d57600080fd5b600061075b858286016106bd565b925050602061076c858286016106fc565b9150509250929050565b60006020828403121561078857600080fd5b600082013567ffffffffffffffff8111156107a257600080fd5b6107ae848285016106d2565b91505092915050565b6107c081610b85565b82525050565b60006107d182610adf565b6107db8185610aea565b93506107eb818560208601610be2565b6107f481610cd4565b840191505092915050565b600061080c602583610aea565b91507f596f75206861766520696e7375666669656e742066756e647320746f2077697460008301527f68647261770000000000000000000000000000000000000000000000000000006020830152604082019050919050565b6000610872602983610aea565b91507f596f75206e65656420746f206465706f73697420736f6d6520616d6f756e742060008301527f6f66206d6f6e65792100000000000000000000000000000000000000000000006020830152604082019050919050565b60006108d8603183610aea565b91507f596f75206d75737420626520746865206f776e657220746f207365742074686560008301527f206e616d65206f66207468652062616e6b0000000000000000000000000000006020830152604082019050919050565b600061093e603683610aea565b91507f596f75206d75737420626520746865206f776e6572206f66207468652062616e60008301527f6b20746f2073656520616c6c2062616c616e6365732e000000000000000000006020830152604082019050919050565b6109a081610bc9565b82525050565b60006020820190506109bb60008301846107b7565b92915050565b600060208201905081810360008301526109db81846107c6565b905092915050565b600060208201905081810360008301526109fc816107ff565b9050919050565b60006020820190508181036000830152610a1c81610865565b9050919050565b60006020820190508181036000830152610a3c816108cb565b9050919050565b60006020820190508181036000830152610a5c81610931565b9050919050565b6000602082019050610a786000830184610997565b92915050565b6000604051905081810181811067ffffffffffffffff82111715610aa557610aa4610ca5565b5b8060405250919050565b600067ffffffffffffffff821115610aca57610ac9610ca5565b5b601f19601f8301169050602081019050919050565b600081519050919050565b600082825260208201905092915050565b6000610b0682610bc9565b9150610b1183610bc9565b9250827fffffffffffffffffffffffffffffffffffffffffffffffffffffffffffffffff03821115610b4657610b45610c47565b5b828201905092915050565b6000610b5c82610bc9565b9150610b6783610bc9565b925082821015610b7a57610b79610c47565b5b828203905092915050565b6000610b9082610ba9565b9050919050565b6000610ba282610ba9565b9050919050565b600073ffffffffffffffffffffffffffffffffffffffff82169050919050565b6000819050919050565b82818337600083830152505050565b60005b83811015610c00578082015181840152602081019050610be5565b83811115610c0f576000848401525b50505050565b60006002820490506001821680610c2d57607f821691505b60208210811415610c4157610c40610c76565b5b50919050565b7f4e487b7100000000000000000000000000000000000000000000000000000000600052601160045260246000fd5b7f4e487b7100000000000000000000000000000000000000000000000000000000600052602260045260246000fd5b7f4e487b7100000000000000000000000000000000000000000000000000000000600052604160045260246000fd5b6000601f19601f8301169050919050565b610cee81610b85565b8114610cf957600080fd5b50565b610d0581610b97565b8114610d1057600080fd5b50565b610d1c81610bc9565b8114610d2757600080fd5b5056fea264697066735822122089d446d18d73454e5fdf10f568e0b517257919d444fdcbb8acdd29061e9f5d9464736f6c63430008000033",
  "linkReferences": {},
  "deployedLinkReferences": {}
}